{
  "contractName": "SupplyChain",
  "abi": [
    {
      "inputs": [],
      "stateMutability": "nonpayable",
      "type": "constructor"
    },
    {
      "anonymous": false,
      "inputs": [
        {
          "indexed": true,
          "internalType": "uint256",
          "name": "productId",
          "type": "uint256"
        },
        {
          "indexed": false,
          "internalType": "string",
          "name": "ipfsHash",
          "type": "string"
        }
      ],
      "name": "IPFSHashUpdated",
      "type": "event"
    },
    {
      "anonymous": false,
      "inputs": [
        {
          "indexed": true,
          "internalType": "uint256",
          "name": "productId",
          "type": "uint256"
        },
        {
          "indexed": false,
          "internalType": "string",
          "name": "name",
          "type": "string"
        },
        {
          "indexed": true,
          "internalType": "address",
          "name": "owner",
          "type": "address"
        }
      ],
      "name": "ProductRegistered",
      "type": "event"
    },
    {
      "anonymous": false,
      "inputs": [
        {
          "indexed": true,
          "internalType": "uint256",
          "name": "productId",
          "type": "uint256"
        },
        {
          "indexed": true,
          "internalType": "address",
          "name": "retailer",
          "type": "address"
        }
      ],
      "name": "ProductSold",
      "type": "event"
    },
    {
      "anonymous": false,
      "inputs": [
        {
          "indexed": true,
          "internalType": "uint256",
          "name": "productId",
          "type": "uint256"
        },
        {
          "indexed": false,
          "internalType": "enum SupplyChain.STAGE",
          "name": "newStage",
          "type": "uint8"
        },
        {
          "indexed": true,
          "internalType": "address",
          "name": "actor",
          "type": "address"
        }
      ],
      "name": "ProductTransferred",
      "type": "event"
    },
    {
      "inputs": [
        {
          "internalType": "uint256",
          "name": "",
          "type": "uint256"
        }
      ],
      "name": "DIS",
      "outputs": [
        {
          "internalType": "address",
          "name": "addr",
          "type": "address"
        },
        {
          "internalType": "uint256",
          "name": "id",
          "type": "uint256"
        },
        {
          "internalType": "string",
          "name": "name",
          "type": "string"
        },
        {
          "internalType": "string",
          "name": "place",
          "type": "string"
        }
      ],
      "stateMutability": "view",
      "type": "function",
      "constant": true
    },
    {
      "inputs": [
        {
          "internalType": "uint256",
          "name": "",
          "type": "uint256"
        }
      ],
      "name": "MAN",
      "outputs": [
        {
          "internalType": "address",
          "name": "addr",
          "type": "address"
        },
        {
          "internalType": "uint256",
          "name": "id",
          "type": "uint256"
        },
        {
          "internalType": "string",
          "name": "name",
          "type": "string"
        },
        {
          "internalType": "string",
          "name": "place",
          "type": "string"
        }
      ],
      "stateMutability": "view",
      "type": "function",
      "constant": true
    },
    {
      "inputs": [
        {
          "internalType": "uint256",
          "name": "",
          "type": "uint256"
        }
      ],
      "name": "MedicineStock",
      "outputs": [
        {
          "internalType": "uint256",
          "name": "id",
          "type": "uint256"
        },
        {
          "internalType": "string",
          "name": "name",
          "type": "string"
        },
        {
          "internalType": "string",
          "name": "description",
          "type": "string"
        },
        {
          "internalType": "uint256",
          "name": "RMSid",
          "type": "uint256"
        },
        {
          "internalType": "uint256",
          "name": "MANid",
          "type": "uint256"
        },
        {
          "internalType": "uint256",
          "name": "DISid",
          "type": "uint256"
        },
        {
          "internalType": "uint256",
          "name": "RETid",
          "type": "uint256"
        },
        {
          "internalType": "enum SupplyChain.STAGE",
          "name": "stage",
          "type": "uint8"
        },
        {
          "internalType": "string",
          "name": "ipfsHash",
          "type": "string"
        },
        {
          "internalType": "uint256",
          "name": "createdAt",
          "type": "uint256"
        },
        {
          "internalType": "uint256",
          "name": "lastUpdatedAt",
          "type": "uint256"
        }
      ],
      "stateMutability": "view",
      "type": "function",
      "constant": true
    },
    {
      "inputs": [],
      "name": "Owner",
      "outputs": [
        {
          "internalType": "address",
          "name": "",
          "type": "address"
        }
      ],
      "stateMutability": "view",
      "type": "function",
      "constant": true
    },
    {
      "inputs": [
        {
          "internalType": "uint256",
          "name": "",
          "type": "uint256"
        }
      ],
      "name": "RET",
      "outputs": [
        {
          "internalType": "address",
          "name": "addr",
          "type": "address"
        },
        {
          "internalType": "uint256",
          "name": "id",
          "type": "uint256"
        },
        {
          "internalType": "string",
          "name": "name",
          "type": "string"
        },
        {
          "internalType": "string",
          "name": "place",
          "type": "string"
        }
      ],
      "stateMutability": "view",
      "type": "function",
      "constant": true
    },
    {
      "inputs": [
        {
          "internalType": "uint256",
          "name": "",
          "type": "uint256"
        }
      ],
      "name": "RMS",
      "outputs": [
        {
          "internalType": "address",
          "name": "addr",
          "type": "address"
        },
        {
          "internalType": "uint256",
          "name": "id",
          "type": "uint256"
        },
        {
          "internalType": "string",
          "name": "name",
          "type": "string"
        },
        {
          "internalType": "string",
          "name": "place",
          "type": "string"
        }
      ],
      "stateMutability": "view",
      "type": "function",
      "constant": true
    },
    {
      "inputs": [],
      "name": "disCtr",
      "outputs": [
        {
          "internalType": "uint256",
          "name": "",
          "type": "uint256"
        }
      ],
      "stateMutability": "view",
      "type": "function",
      "constant": true
    },
    {
      "inputs": [],
      "name": "manCtr",
      "outputs": [
        {
          "internalType": "uint256",
          "name": "",
          "type": "uint256"
        }
      ],
      "stateMutability": "view",
      "type": "function",
      "constant": true
    },
    {
      "inputs": [],
      "name": "medicineCtr",
      "outputs": [
        {
          "internalType": "uint256",
          "name": "",
          "type": "uint256"
        }
      ],
      "stateMutability": "view",
      "type": "function",
      "constant": true
    },
    {
      "inputs": [],
      "name": "retCtr",
      "outputs": [
        {
          "internalType": "uint256",
          "name": "",
          "type": "uint256"
        }
      ],
      "stateMutability": "view",
      "type": "function",
      "constant": true
    },
    {
      "inputs": [],
      "name": "rmsCtr",
      "outputs": [
        {
          "internalType": "uint256",
          "name": "",
          "type": "uint256"
        }
      ],
      "stateMutability": "view",
      "type": "function",
      "constant": true
    },
    {
      "inputs": [
        {
          "internalType": "uint256",
          "name": "_medicineID",
          "type": "uint256"
        }
      ],
      "name": "showStage",
      "outputs": [
        {
          "internalType": "string",
          "name": "stage",
          "type": "string"
        }
      ],
      "stateMutability": "view",
      "type": "function",
      "constant": true
    },
    {
      "inputs": [
        {
          "internalType": "address",
          "name": "_address",
          "type": "address"
        },
        {
          "internalType": "string",
          "name": "_name",
          "type": "string"
        },
        {
          "internalType": "string",
          "name": "_place",
          "type": "string"
        }
      ],
      "name": "addRMS",
      "outputs": [],
      "stateMutability": "nonpayable",
      "type": "function"
    },
    {
      "inputs": [
        {
          "internalType": "address",
          "name": "_address",
          "type": "address"
        },
        {
          "internalType": "string",
          "name": "_name",
          "type": "string"
        },
        {
          "internalType": "string",
          "name": "_place",
          "type": "string"
        }
      ],
      "name": "addManufacturer",
      "outputs": [],
      "stateMutability": "nonpayable",
      "type": "function"
    },
    {
      "inputs": [
        {
          "internalType": "address",
          "name": "_address",
          "type": "address"
        },
        {
          "internalType": "string",
          "name": "_name",
          "type": "string"
        },
        {
          "internalType": "string",
          "name": "_place",
          "type": "string"
        }
      ],
      "name": "addDistributor",
      "outputs": [],
      "stateMutability": "nonpayable",
      "type": "function"
    },
    {
      "inputs": [
        {
          "internalType": "address",
          "name": "_address",
          "type": "address"
        },
        {
          "internalType": "string",
          "name": "_name",
          "type": "string"
        },
        {
          "internalType": "string",
          "name": "_place",
          "type": "string"
        }
      ],
      "name": "addRetailer",
      "outputs": [],
      "stateMutability": "nonpayable",
      "type": "function"
    },
    {
      "inputs": [
        {
          "internalType": "uint256",
          "name": "_medicineID",
          "type": "uint256"
        }
      ],
      "name": "RMSsupply",
      "outputs": [],
      "stateMutability": "nonpayable",
      "type": "function"
    },
    {
      "inputs": [
        {
          "internalType": "uint256",
          "name": "_medicineID",
          "type": "uint256"
        }
      ],
      "name": "Manufacturing",
      "outputs": [],
      "stateMutability": "nonpayable",
      "type": "function"
    },
    {
      "inputs": [
        {
          "internalType": "uint256",
          "name": "_medicineID",
          "type": "uint256"
        }
      ],
      "name": "Distribute",
      "outputs": [],
      "stateMutability": "nonpayable",
      "type": "function"
    },
    {
      "inputs": [
        {
          "internalType": "uint256",
          "name": "_medicineID",
          "type": "uint256"
        }
      ],
      "name": "Retail",
      "outputs": [],
      "stateMutability": "nonpayable",
      "type": "function"
    },
    {
      "inputs": [
        {
          "internalType": "uint256",
          "name": "_medicineID",
          "type": "uint256"
        }
      ],
      "name": "sold",
      "outputs": [],
      "stateMutability": "nonpayable",
      "type": "function"
    },
    {
      "inputs": [
        {
          "internalType": "string",
          "name": "_name",
          "type": "string"
        },
        {
          "internalType": "string",
          "name": "_description",
          "type": "string"
        }
      ],
      "name": "addMedicine",
      "outputs": [],
      "stateMutability": "nonpayable",
      "type": "function"
    },
    {
      "inputs": [
        {
          "internalType": "uint256",
          "name": "_medicineID",
          "type": "uint256"
        },
        {
          "internalType": "string",
          "name": "_ipfsHash",
          "type": "string"
        }
      ],
      "name": "updateIPFSHash",
      "outputs": [],
      "stateMutability": "nonpayable",
      "type": "function"
    }
  ],
  "bytecode": "0x60806040526000600155600060025560006003556000600455600060055534801561002957600080fd5b50336000806101000a81548173ffffffffffffffffffffffffffffffffffffffff021916908373ffffffffffffffffffffffffffffffffffffffff160217905550612b7c806100796000396000f3fe608060405234801561001057600080fd5b506004361061014d5760003560e01c8063857ddb04116100c3578063b4a99a4e1161007c578063b4a99a4e14610364578063cc40306914610382578063dd286398146103b5578063e101a2e0146103d3578063eb1a06b514610403578063eef5cb401461043d5761014d565b8063857ddb04146102ba57806386c18275146102d65780638f4183cc146102f25780639c03facb1461030e578063a48d335a1461032a578063a95f29d9146103465761014d565b8063438e9c4d11610115578063438e9c4d146101f75780634def474a1461021557806359bf286f146102315780636a992c9f146102645780637e43d94d1461028057806380a69c2a1461029e5761014d565b80632a4af440146101525780632b0187ac1461016e5780632b70b08d146101a15780632bdb2e6b146101bd5780633d753a1c146101db575b600080fd5b61016c60048036038101906101679190612395565b610470565b005b61018860048036038101906101839190612456565b6105b3565b6040516101989493929190612520565b60405180910390f35b6101bb60048036038101906101b69190612395565b610713565b005b6101c5610856565b6040516101d29190612573565b60405180910390f35b6101f560048036038101906101f09190612456565b61085c565b005b6101ff6109ae565b60405161020c9190612573565b60405180910390f35b61022f600480360381019061022a9190612456565b6109b4565b005b61024b60048036038101906102469190612456565b610b06565b60405161025b9493929190612520565b60405180910390f35b61027e60048036038101906102799190612395565b610c66565b005b610288610da9565b6040516102959190612573565b60405180910390f35b6102b860048036038101906102b3919061258e565b610daf565b005b6102d460048036038101906102cf9190612395565b610e9d565b005b6102f060048036038101906102eb9190612456565b610fe0565b005b61030c600480360381019061030791906125ea565b611132565b005b61032860048036038101906103239190612456565b611377565b005b610344600480360381019061033f9190612456565b611514565b005b61034e611666565b60405161035b9190612573565b60405180910390f35b61036c61166c565b6040516103799190612662565b60405180910390f35b61039c60048036038101906103979190612456565b611690565b6040516103ac9493929190612520565b60405180910390f35b6103bd6117f0565b6040516103ca9190612573565b60405180910390f35b6103ed60048036038101906103e89190612456565b6117f6565b6040516103fa919061267d565b60405180910390f35b61041d60048036038101906104189190612456565b611b66565b6040516104349b9a99989796959493929190612716565b60405180910390f35b61045760048036038101906104529190612456565b611d65565b6040516104679493929190612520565b60405180910390f35b60008054906101000a900473ffffffffffffffffffffffffffffffffffffffff1673ffffffffffffffffffffffffffffffffffffffff163373ffffffffffffffffffffffffffffffffffffffff16146104c857600080fd5b600460008154809291906104db90612805565b919050555060405180608001604052808473ffffffffffffffffffffffffffffffffffffffff16815260200160045481526020018381526020018281525060096000600454815260200190815260200160002060008201518160000160006101000a81548173ffffffffffffffffffffffffffffffffffffffff021916908373ffffffffffffffffffffffffffffffffffffffff1602179055506020820151816001015560408201518160020190816105949190612a59565b5060608201518160030190816105aa9190612a59565b50905050505050565b60096020528060005260406000206000915090508060000160009054906101000a900473ffffffffffffffffffffffffffffffffffffffff16908060010154908060020180546106029061287c565b80601f016020809104026020016040519081016040528092919081815260200182805461062e9061287c565b801561067b5780601f106106505761010080835404028352916020019161067b565b820191906000526020600020905b81548152906001019060200180831161065e57829003601f168201915b5050505050908060030180546106909061287c565b80601f01602080910402602001604051908101604052809291908181526020018280546106bc9061287c565b80156107095780601f106106de57610100808354040283529160200191610709565b820191906000526020600020905b8154815290600101906020018083116106ec57829003601f168201915b5050505050905084565b60008054906101000a900473ffffffffffffffffffffffffffffffffffffffff1673ffffffffffffffffffffffffffffffffffffffff163373ffffffffffffffffffffffffffffffffffffffff161461076b57600080fd5b6002600081548092919061077e90612805565b919050555060405180608001604052808473ffffffffffffffffffffffffffffffffffffffff16815260200160025481526020018381526020018281525060076000600254815260200190815260200160002060008201518160000160006101000a81548173ffffffffffffffffffffffffffffffffffffffff021916908373ffffffffffffffffffffffffffffffffffffffff1602179055506020820151816001015560408201518160020190816108379190612a59565b50606082015181600301908161084d9190612a59565b50905050505050565b60045481565b60008111801561086e57506001548111155b61087757600080fd5b600061088233611ec5565b90506000811161089157600080fd5b600360058111156108a5576108a461269f565b5b6006600084815260200190815260200160002060070160009054906101000a900460ff1660058111156108db576108da61269f565b5b146108e557600080fd5b80600660008481526020019081526020016000206006018190555060046006600084815260200190815260200160002060070160006101000a81548160ff0219169083600581111561093a5761093961269f565b5b02179055504260066000848152602001908152602001600020600a01819055503373ffffffffffffffffffffffffffffffffffffffff16827fd2f05fa069e814c4b3c04051d9090ded28c41d8ed6c9aa7d2da34711a5c2b18a60046040516109a29190612b2b565b60405180910390a35050565b60035481565b6000811180156109c657506001548111155b6109cf57600080fd5b60006109da33611f8b565b9050600081116109e957600080fd5b600260058111156109fd576109fc61269f565b5b6006600084815260200190815260200160002060070160009054906101000a900460ff166005811115610a3357610a3261269f565b5b14610a3d57600080fd5b80600660008481526020019081526020016000206005018190555060036006600084815260200190815260200160002060070160006101000a81548160ff02191690836005811115610a9257610a9161269f565b5b02179055504260066000848152602001908152602001600020600a01819055503373ffffffffffffffffffffffffffffffffffffffff16827fd2f05fa069e814c4b3c04051d9090ded28c41d8ed6c9aa7d2da34711a5c2b18a6003604051610afa9190612b2b565b60405180910390a35050565b600a6020528060005260406000206000915090508060000160009054906101000a900473ffffffffffffffffffffffffffffffffffffffff1690806001015490806002018054610b559061287c565b80601f0160208091040260200160405190810160405280929190818152602001828054610b819061287c565b8015610bce5780601f10610ba357610100808354040283529160200191610bce565b820191906000526020600020905b815481529060010190602001808311610bb157829003601f168201915b505050505090806003018054610be39061287c565b80601f0160208091040260200160405190810160405280929190818152602001828054610c0f9061287c565b8015610c5c5780601f10610c3157610100808354040283529160200191610c5c565b820191906000526020600020905b815481529060010190602001808311610c3f57829003601f168201915b5050505050905084565b60008054906101000a900473ffffffffffffffffffffffffffffffffffffffff1673ffffffffffffffffffffffffffffffffffffffff163373ffffffffffffffffffffffffffffffffffffffff1614610cbe57600080fd5b60036000815480929190610cd190612805565b919050555060405180608001604052808473ffffffffffffffffffffffffffffffffffffffff16815260200160035481526020018381526020018281525060086000600354815260200190815260200160002060008201518160000160006101000a81548173ffffffffffffffffffffffffffffffffffffffff021916908373ffffffffffffffffffffffffffffffffffffffff160217905550602082015181600101556040820151816002019081610d8a9190612a59565b506060820151816003019081610da09190612a59565b50905050505050565b60055481565b60008054906101000a900473ffffffffffffffffffffffffffffffffffffffff1673ffffffffffffffffffffffffffffffffffffffff163373ffffffffffffffffffffffffffffffffffffffff1614610e0757600080fd5b600082118015610e1957506001548211155b610e2257600080fd5b80600660008481526020019081526020016000206008019081610e459190612a59565b504260066000848152602001908152602001600020600a0181905550817f609fafa9172a967760a94ba36a0408a929aaa66948beccd7e9bb986ec6cac2ca82604051610e91919061267d565b60405180910390a25050565b60008054906101000a900473ffffffffffffffffffffffffffffffffffffffff1673ffffffffffffffffffffffffffffffffffffffff163373ffffffffffffffffffffffffffffffffffffffff1614610ef557600080fd5b60056000815480929190610f0890612805565b919050555060405180608001604052808473ffffffffffffffffffffffffffffffffffffffff168152602001600554815260200183815260200182815250600a6000600554815260200190815260200160002060008201518160000160006101000a81548173ffffffffffffffffffffffffffffffffffffffff021916908373ffffffffffffffffffffffffffffffffffffffff160217905550602082015181600101556040820151816002019081610fc19190612a59565b506060820151816003019081610fd79190612a59565b50905050505050565b600081118015610ff257506001548111155b610ffb57600080fd5b600061100633612051565b90506000811161101557600080fd5b600060058111156110295761102861269f565b5b6006600084815260200190815260200160002060070160009054906101000a900460ff16600581111561105f5761105e61269f565b5b1461106957600080fd5b80600660008481526020019081526020016000206003018190555060016006600084815260200190815260200160002060070160006101000a81548160ff021916908360058111156110be576110bd61269f565b5b02179055504260066000848152602001908152602001600020600a01819055503373ffffffffffffffffffffffffffffffffffffffff16827fd2f05fa069e814c4b3c04051d9090ded28c41d8ed6c9aa7d2da34711a5c2b18a60016040516111269190612b2b565b60405180910390a35050565b60008054906101000a900473ffffffffffffffffffffffffffffffffffffffff1673ffffffffffffffffffffffffffffffffffffffff163373ffffffffffffffffffffffffffffffffffffffff161461118a57600080fd5b600060025411801561119e57506000600354115b80156111ac57506000600454115b80156111ba57506000600554115b6111c357600080fd5b600160008154809291906111d690612805565b91905055506040518061016001604052806001548152602001838152602001828152602001600081526020016000815260200160008152602001600081526020016000600581111561122b5761122a61269f565b5b8152602001604051806020016040528060008152508152602001428152602001428152506006600060015481526020019081526020016000206000820151816000015560208201518160010190816112839190612a59565b5060408201518160020190816112999190612a59565b50606082015181600301556080820151816004015560a0820151816005015560c0820151816006015560e08201518160070160006101000a81548160ff021916908360058111156112ed576112ec61269f565b5b02179055506101008201518160080190816113089190612a59565b50610120820151816009015561014082015181600a01559050503373ffffffffffffffffffffffffffffffffffffffff166001547fd810998a0248808a33b20218e71759cb2ec1a182b398350ad606d742587c012c8460405161136b919061267d565b60405180910390a35050565b60008111801561138957506001548111155b61139257600080fd5b600061139d33611ec5565b9050600081116113ac57600080fd5b600660008381526020019081526020016000206006015481146113ce57600080fd5b600460058111156113e2576113e161269f565b5b6006600084815260200190815260200160002060070160009054906101000a900460ff1660058111156114185761141761269f565b5b1461142257600080fd5b60056006600084815260200190815260200160002060070160006101000a81548160ff0219169083600581111561145c5761145b61269f565b5b02179055504260066000848152602001908152602001600020600a01819055503373ffffffffffffffffffffffffffffffffffffffff16827fbdb79f0b777669cf4d01754a6d6b461bdd8d0f18b57c036e7d4bf3a567f3378460405160405180910390a33373ffffffffffffffffffffffffffffffffffffffff16827fd2f05fa069e814c4b3c04051d9090ded28c41d8ed6c9aa7d2da34711a5c2b18a60056040516115089190612b2b565b60405180910390a35050565b60008111801561152657506001548111155b61152f57600080fd5b600061153a33612117565b90506000811161154957600080fd5b6001600581111561155d5761155c61269f565b5b6006600084815260200190815260200160002060070160009054906101000a900460ff1660058111156115935761159261269f565b5b1461159d57600080fd5b80600660008481526020019081526020016000206004018190555060026006600084815260200190815260200160002060070160006101000a81548160ff021916908360058111156115f2576115f161269f565b5b02179055504260066000848152602001908152602001600020600a01819055503373ffffffffffffffffffffffffffffffffffffffff16827fd2f05fa069e814c4b3c04051d9090ded28c41d8ed6c9aa7d2da34711a5c2b18a600260405161165a9190612b2b565b60405180910390a35050565b60015481565b60008054906101000a900473ffffffffffffffffffffffffffffffffffffffff1681565b60086020528060005260406000206000915090508060000160009054906101000a900473ffffffffffffffffffffffffffffffffffffffff16908060010154908060020180546116df9061287c565b80601f016020809104026020016040519081016040528092919081815260200182805461170b9061287c565b80156117585780601f1061172d57610100808354040283529160200191611758565b820191906000526020600020905b81548152906001019060200180831161173b57829003601f168201915b50505050509080600301805461176d9061287c565b80601f01602080910402602001604051908101604052809291908181526020018280546117999061287c565b80156117e65780601f106117bb576101008083540402835291602001916117e6565b820191906000526020600020905b8154815290600101906020018083116117c957829003601f168201915b5050505050905084565b60025481565b606060006001541161180757600080fd5b6000600581111561181b5761181a61269f565b5b6006600084815260200190815260200160002060070160009054906101000a900460ff1660058111156118515761185061269f565b5b03611893576040518060400160405280601481526020017f466f6f642050726f64756374204f7264657265640000000000000000000000008152509050611b61565b600160058111156118a7576118a661269f565b5b6006600084815260200190815260200160002060070160009054906101000a900460ff1660058111156118dd576118dc61269f565b5b0361191f576040518060400160405280601981526020017f526177204d6174657269616c20537570706c79205374616765000000000000008152509050611b61565b600260058111156119335761193261269f565b5b6006600084815260200190815260200160002060070160009054906101000a900460ff1660058111156119695761196861269f565b5b036119ab576040518060400160405280601381526020017f4d616e75666163747572696e67205374616765000000000000000000000000008152509050611b61565b600360058111156119bf576119be61269f565b5b6006600084815260200190815260200160002060070160009054906101000a900460ff1660058111156119f5576119f461269f565b5b03611a37576040518060400160405280601281526020017f446973747269627574696f6e20537461676500000000000000000000000000008152509050611b61565b60046005811115611a4b57611a4a61269f565b5b6006600084815260200190815260200160002060070160009054906101000a900460ff166005811115611a8157611a8061269f565b5b03611ac3576040518060400160405280600c81526020017f52657461696c20537461676500000000000000000000000000000000000000008152509050611b61565b600580811115611ad657611ad561269f565b5b6006600084815260200190815260200160002060070160009054906101000a900460ff166005811115611b0c57611b0b61269f565b5b03611b4e576040518060400160405280601181526020017f466f6f642050726f6475637420536f6c640000000000000000000000000000008152509050611b61565b6040518060200160405280600081525090505b919050565b6006602052806000526040600020600091509050806000015490806001018054611b8f9061287c565b80601f0160208091040260200160405190810160405280929190818152602001828054611bbb9061287c565b8015611c085780601f10611bdd57610100808354040283529160200191611c08565b820191906000526020600020905b815481529060010190602001808311611beb57829003601f168201915b505050505090806002018054611c1d9061287c565b80601f0160208091040260200160405190810160405280929190818152602001828054611c499061287c565b8015611c965780601f10611c6b57610100808354040283529160200191611c96565b820191906000526020600020905b815481529060010190602001808311611c7957829003601f168201915b5050505050908060030154908060040154908060050154908060060154908060070160009054906101000a900460ff1690806008018054611cd69061287c565b80601f0160208091040260200160405190810160405280929190818152602001828054611d029061287c565b8015611d4f5780601f10611d2457610100808354040283529160200191611d4f565b820191906000526020600020905b815481529060010190602001808311611d3257829003601f168201915b50505050509080600901549080600a015490508b565b60076020528060005260406000206000915090508060000160009054906101000a900473ffffffffffffffffffffffffffffffffffffffff1690806001015490806002018054611db49061287c565b80601f0160208091040260200160405190810160405280929190818152602001828054611de09061287c565b8015611e2d5780601f10611e0257610100808354040283529160200191611e2d565b820191906000526020600020905b815481529060010190602001808311611e1057829003601f168201915b505050505090806003018054611e429061287c565b80601f0160208091040260200160405190810160405280929190818152602001828054611e6e9061287c565b8015611ebb5780601f10611e9057610100808354040283529160200191611ebb565b820191906000526020600020905b815481529060010190602001808311611e9e57829003601f168201915b5050505050905084565b60008060055411611ed557600080fd5b6000600190505b6005548111611f80578273ffffffffffffffffffffffffffffffffffffffff16600a600083815260200190815260200160002060000160009054906101000a900473ffffffffffffffffffffffffffffffffffffffff1673ffffffffffffffffffffffffffffffffffffffff1603611f6d57600a600082815260200190815260200160002060010154915050611f86565b8080611f7890612805565b915050611edc565b50600090505b919050565b60008060045411611f9b57600080fd5b6000600190505b6004548111612046578273ffffffffffffffffffffffffffffffffffffffff166009600083815260200190815260200160002060000160009054906101000a900473ffffffffffffffffffffffffffffffffffffffff1673ffffffffffffffffffffffffffffffffffffffff160361203357600960008281526020019081526020016000206001015491505061204c565b808061203e90612805565b915050611fa2565b50600090505b919050565b6000806002541161206157600080fd5b6000600190505b600254811161210c578273ffffffffffffffffffffffffffffffffffffffff166007600083815260200190815260200160002060000160009054906101000a900473ffffffffffffffffffffffffffffffffffffffff1673ffffffffffffffffffffffffffffffffffffffff16036120f9576007600082815260200190815260200160002060010154915050612112565b808061210490612805565b915050612068565b50600090505b919050565b6000806003541161212757600080fd5b6000600190505b60035481116121d2578273ffffffffffffffffffffffffffffffffffffffff166008600083815260200190815260200160002060000160009054906101000a900473ffffffffffffffffffffffffffffffffffffffff1673ffffffffffffffffffffffffffffffffffffffff16036121bf5760086000828152602001908152602001600020600101549150506121d8565b80806121ca90612805565b91505061212e565b50600090505b919050565b6000604051905090565b600080fd5b600080fd5b600073ffffffffffffffffffffffffffffffffffffffff82169050919050565b600061221c826121f1565b9050919050565b61222c81612211565b811461223757600080fd5b50565b60008135905061224981612223565b92915050565b600080fd5b600080fd5b6000601f19601f8301169050919050565b7f4e487b7100000000000000000000000000000000000000000000000000000000600052604160045260246000fd5b6122a282612259565b810181811067ffffffffffffffff821117156122c1576122c061226a565b5b80604052505050565b60006122d46121dd565b90506122e08282612299565b919050565b600067ffffffffffffffff821115612300576122ff61226a565b5b61230982612259565b9050602081019050919050565b82818337600083830152505050565b6000612338612333846122e5565b6122ca565b90508281526020810184848401111561235457612353612254565b5b61235f848285612316565b509392505050565b600082601f83011261237c5761237b61224f565b5b813561238c848260208601612325565b91505092915050565b6000806000606084860312156123ae576123ad6121e7565b5b60006123bc8682870161223a565b935050602084013567ffffffffffffffff8111156123dd576123dc6121ec565b5b6123e986828701612367565b925050604084013567ffffffffffffffff81111561240a576124096121ec565b5b61241686828701612367565b9150509250925092565b6000819050919050565b61243381612420565b811461243e57600080fd5b50565b6000813590506124508161242a565b92915050565b60006020828403121561246c5761246b6121e7565b5b600061247a84828501612441565b91505092915050565b61248c81612211565b82525050565b61249b81612420565b82525050565b600081519050919050565b600082825260208201905092915050565b60005b838110156124db5780820151818401526020810190506124c0565b60008484015250505050565b60006124f2826124a1565b6124fc81856124ac565b935061250c8185602086016124bd565b61251581612259565b840191505092915050565b60006080820190506125356000830187612483565b6125426020830186612492565b818103604083015261255481856124e7565b9050818103606083015261256881846124e7565b905095945050505050565b60006020820190506125886000830184612492565b92915050565b600080604083850312156125a5576125a46121e7565b5b60006125b385828601612441565b925050602083013567ffffffffffffffff8111156125d4576125d36121ec565b5b6125e085828601612367565b9150509250929050565b60008060408385031215612601576126006121e7565b5b600083013567ffffffffffffffff81111561261f5761261e6121ec565b5b61262b85828601612367565b925050602083013567ffffffffffffffff81111561264c5761264b6121ec565b5b61265885828601612367565b9150509250929050565b60006020820190506126776000830184612483565b92915050565b6000602082019050818103600083015261269781846124e7565b905092915050565b7f4e487b7100000000000000000000000000000000000000000000000000000000600052602160045260246000fd5b600681106126df576126de61269f565b5b50565b60008190506126f0826126ce565b919050565b6000612700826126e2565b9050919050565b612710816126f5565b82525050565b60006101608201905061272c600083018e612492565b818103602083015261273e818d6124e7565b90508181036040830152612752818c6124e7565b9050612761606083018b612492565b61276e608083018a612492565b61277b60a0830189612492565b61278860c0830188612492565b61279560e0830187612707565b8181036101008301526127a881866124e7565b90506127b8610120830185612492565b6127c6610140830184612492565b9c9b505050505050505050505050565b7f4e487b7100000000000000000000000000000000000000000000000000000000600052601160045260246000fd5b600061281082612420565b91507fffffffffffffffffffffffffffffffffffffffffffffffffffffffffffffffff8203612842576128416127d6565b5b600182019050919050565b7f4e487b7100000000000000000000000000000000000000000000000000000000600052602260045260246000fd5b6000600282049050600182168061289457607f821691505b6020821081036128a7576128a661284d565b5b50919050565b60008190508160005260206000209050919050565b60006020601f8301049050919050565b600082821b905092915050565b60006008830261290f7fffffffffffffffffffffffffffffffffffffffffffffffffffffffffffffffff826128d2565b61291986836128d2565b95508019841693508086168417925050509392505050565b6000819050919050565b600061295661295161294c84612420565b612931565b612420565b9050919050565b6000819050919050565b6129708361293b565b61298461297c8261295d565b8484546128df565b825550505050565b600090565b61299961298c565b6129a4818484612967565b505050565b5b818110156129c8576129bd600082612991565b6001810190506129aa565b5050565b601f821115612a0d576129de816128ad565b6129e7846128c2565b810160208510156129f6578190505b612a0a612a02856128c2565b8301826129a9565b50505b505050565b600082821c905092915050565b6000612a3060001984600802612a12565b1980831691505092915050565b6000612a498383612a1f565b9150826002028217905092915050565b612a62826124a1565b67ffffffffffffffff811115612a7b57612a7a61226a565b5b612a85825461287c565b612a908282856129cc565b600060209050601f831160018114612ac35760008415612ab1578287015190505b612abb8582612a3d565b865550612b23565b601f198416612ad1866128ad565b60005b82811015612af957848901518255600182019150602085019450602081019050612ad4565b86831015612b165784890151612b12601f891682612a1f565b8355505b6001600288020188555050505b505050505050565b6000602082019050612b406000830184612707565b9291505056fea2646970667358221220ae4cd7cbab01b4aa6db0dee41579de1a487263699599e4eed491cc1f31dd1d1a64736f6c63430008140033",
  "immutableReferences": {},
  "source": "// SPDX-License-Identifier: MIT\npragma solidity ^0.8.0;\n\ncontract SupplyChain {\n    //Smart Contract owner will be the person who deploys the contract only he can authorize various roles like retailer, Manufacturer,etc\n    address public Owner;\n\n    //note this constructor will be called when smart contract will be deployed on blockchain\n    constructor() {\n        Owner = msg.sender;\n    }\n\n    //Roles (flow of agriculture supply chain)\n    // RawMaterialSupplier; //This is where Manufacturer will get raw materials to make food products\n    // Manufacturer;  //Various WHO guidelines should be followed by this person\n    // Distributor; //This guy distributes the food products to retailers\n    // Retailer; //Normal customer buys from the retailer\n\n    //modifier to make sure only the owner is using the function\n    modifier onlyByOwner() {\n        require(msg.sender == Owner);\n        _;\n    }\n\n    //stages of a food product in agriculture supply chain\n    enum STAGE {\n        Init,\n        RawMaterialSupply,\n        Manufacture,\n        Distribution,\n        Retail,\n        sold\n    }\n    //using this we are going to track every single food product the owner orders\n\n    //Food Product count\n    uint256 public medicineCtr = 0;\n    //Raw material supplier count\n    uint256 public rmsCtr = 0;\n    //Manufacturer count\n    uint256 public manCtr = 0;\n    //distributor count\n    uint256 public disCtr = 0;\n    //retailer count\n    uint256 public retCtr = 0;\n\n    //To store information about the food product\n    struct FoodProduct {\n        uint256 id; //unique food product id\n        string name; //name of the food product\n        string description; //about food product\n        uint256 RMSid; //id of the Raw Material supplier for this particular food product\n        uint256 MANid; //id of the Manufacturer for this particular food product\n        uint256 DISid; //id of the distributor for this particular food product\n        uint256 RETid; //id of the retailer for this particular food product\n        STAGE stage; //current food product stage\n        string ipfsHash; //IPFS hash for storing certificates and environmental data\n        uint256 createdAt; //timestamp when product was created\n        uint256 lastUpdatedAt; //timestamp of last update\n    }\n\n    //To store all the food products on the blockchain\n    mapping(uint256 => FoodProduct) public MedicineStock;\n\n    //To show status to client applications\n    function showStage(uint256 _medicineID)\n        public\n        view\n        returns (string memory stage)\n    {\n        require(medicineCtr > 0);\n        if (MedicineStock[_medicineID].stage == STAGE.Init)\n            return \"Food Product Ordered\";\n        else if (MedicineStock[_medicineID].stage == STAGE.RawMaterialSupply)\n            return \"Raw Material Supply Stage\";\n        else if (MedicineStock[_medicineID].stage == STAGE.Manufacture)\n            return \"Manufacturing Stage\";\n        else if (MedicineStock[_medicineID].stage == STAGE.Distribution)\n            return \"Distribution Stage\";\n        else if (MedicineStock[_medicineID].stage == STAGE.Retail)\n            return \"Retail Stage\";\n        else if (MedicineStock[_medicineID].stage == STAGE.sold)\n            return \"Food Product Sold\";\n        return \"\"; // Default return for safety\n    }\n\n    //To store information about raw material supplier\n    struct rawMaterialSupplier {\n        address addr;\n        uint256 id; //supplier id\n        string name; //Name of the raw material supplier\n        string place; //Place the raw material supplier is based in\n    }\n\n    //To store all the raw material suppliers on the blockchain\n    mapping(uint256 => rawMaterialSupplier) public RMS;\n\n    //To store information about manufacturer\n    struct manufacturer {\n        address addr;\n        uint256 id; //manufacturer id\n        string name; //Name of the manufacturer\n        string place; //Place the manufacturer is based in\n    }\n\n    //To store all the manufacturers on the blockchain\n    mapping(uint256 => manufacturer) public MAN;\n\n    //To store information about distributor\n    struct distributor {\n        address addr;\n        uint256 id; //distributor id\n        string name; //Name of the distributor\n        string place; //Place the distributor is based in\n    }\n\n    //To store all the distributors on the blockchain\n    mapping(uint256 => distributor) public DIS;\n\n    //To store information about retailer\n    struct retailer {\n        address addr;\n        uint256 id; //retailer id\n        string name; //Name of the retailer\n        string place; //Place the retailer is based in\n    }\n\n    //To store all the retailers on the blockchain\n    mapping(uint256 => retailer) public RET;\n\n    //To add raw material suppliers. Only contract owner can add a new raw material supplier\n    function addRMS(\n        address _address,\n        string memory _name,\n        string memory _place\n    ) public onlyByOwner() {\n        rmsCtr++;\n        RMS[rmsCtr] = rawMaterialSupplier(_address, rmsCtr, _name, _place);\n    }\n\n    //To add manufacturer. Only contract owner can add a new manufacturer\n    function addManufacturer(\n        address _address,\n        string memory _name,\n        string memory _place\n    ) public onlyByOwner() {\n        manCtr++;\n        MAN[manCtr] = manufacturer(_address, manCtr, _name, _place);\n    }\n\n    //To add distributor. Only contract owner can add a new distributor\n    function addDistributor(\n        address _address,\n        string memory _name,\n        string memory _place\n    ) public onlyByOwner() {\n        disCtr++;\n        DIS[disCtr] = distributor(_address, disCtr, _name, _place);\n    }\n\n    //To add retailer. Only contract owner can add a new retailer\n    function addRetailer(\n        address _address,\n        string memory _name,\n        string memory _place\n    ) public onlyByOwner() {\n        retCtr++;\n        RET[retCtr] = retailer(_address, retCtr, _name, _place);\n    }\n\n    //To supply raw materials from RMS supplier to the manufacturer\n    function RMSsupply(uint256 _medicineID) public {\n        require(_medicineID > 0 && _medicineID <= medicineCtr);\n        uint256 _id = findRMS(msg.sender);\n        require(_id > 0);\n        require(MedicineStock[_medicineID].stage == STAGE.Init);\n        MedicineStock[_medicineID].RMSid = _id;\n        MedicineStock[_medicineID].stage = STAGE.RawMaterialSupply;\n        MedicineStock[_medicineID].lastUpdatedAt = block.timestamp;\n        emit ProductTransferred(_medicineID, STAGE.RawMaterialSupply, msg.sender);\n    }\n\n    //To check if RMS is available in the blockchain\n    function findRMS(address _address) private view returns (uint256) {\n        require(rmsCtr > 0);\n        for (uint256 i = 1; i <= rmsCtr; i++) {\n            if (RMS[i].addr == _address) return RMS[i].id;\n        }\n        return 0;\n    }\n\n    //To manufacture food product\n    function Manufacturing(uint256 _medicineID) public {\n        require(_medicineID > 0 && _medicineID <= medicineCtr);\n        uint256 _id = findMAN(msg.sender);\n        require(_id > 0);\n        require(MedicineStock[_medicineID].stage == STAGE.RawMaterialSupply);\n        MedicineStock[_medicineID].MANid = _id;\n        MedicineStock[_medicineID].stage = STAGE.Manufacture;\n        MedicineStock[_medicineID].lastUpdatedAt = block.timestamp;\n        emit ProductTransferred(_medicineID, STAGE.Manufacture, msg.sender);\n    }\n\n    //To check if Manufacturer is available in the blockchain\n    function findMAN(address _address) private view returns (uint256) {\n        require(manCtr > 0);\n        for (uint256 i = 1; i <= manCtr; i++) {\n            if (MAN[i].addr == _address) return MAN[i].id;\n        }\n        return 0;\n    }\n\n    //To supply food products from Manufacturer to distributor\n    function Distribute(uint256 _medicineID) public {\n        require(_medicineID > 0 && _medicineID <= medicineCtr);\n        uint256 _id = findDIS(msg.sender);\n        require(_id > 0);\n        require(MedicineStock[_medicineID].stage == STAGE.Manufacture);\n        MedicineStock[_medicineID].DISid = _id;\n        MedicineStock[_medicineID].stage = STAGE.Distribution;\n        MedicineStock[_medicineID].lastUpdatedAt = block.timestamp;\n        emit ProductTransferred(_medicineID, STAGE.Distribution, msg.sender);\n    }\n\n    //To check if distributor is available in the blockchain\n    function findDIS(address _address) private view returns (uint256) {\n        require(disCtr > 0);\n        for (uint256 i = 1; i <= disCtr; i++) {\n            if (DIS[i].addr == _address) return DIS[i].id;\n        }\n        return 0;\n    }\n\n    //To supply food products from distributor to retailer\n    function Retail(uint256 _medicineID) public {\n        require(_medicineID > 0 && _medicineID <= medicineCtr);\n        uint256 _id = findRET(msg.sender);\n        require(_id > 0);\n        require(MedicineStock[_medicineID].stage == STAGE.Distribution);\n        MedicineStock[_medicineID].RETid = _id;\n        MedicineStock[_medicineID].stage = STAGE.Retail;\n        MedicineStock[_medicineID].lastUpdatedAt = block.timestamp;\n        emit ProductTransferred(_medicineID, STAGE.Retail, msg.sender);\n    }\n\n    //To check if retailer is available in the blockchain\n    function findRET(address _address) private view returns (uint256) {\n        require(retCtr > 0);\n        for (uint256 i = 1; i <= retCtr; i++) {\n            if (RET[i].addr == _address) return RET[i].id;\n        }\n        return 0;\n    }\n\n    //To sell food products from retailer to consumer\n    function sold(uint256 _medicineID) public {\n        require(_medicineID > 0 && _medicineID <= medicineCtr);\n        uint256 _id = findRET(msg.sender);\n        require(_id > 0);\n        require(_id == MedicineStock[_medicineID].RETid); //Only correct retailer can mark food product as sold\n        require(MedicineStock[_medicineID].stage == STAGE.Retail);\n        MedicineStock[_medicineID].stage = STAGE.sold;\n        MedicineStock[_medicineID].lastUpdatedAt = block.timestamp;\n        emit ProductSold(_medicineID, msg.sender);\n        emit ProductTransferred(_medicineID, STAGE.sold, msg.sender);\n    }\n\n    // Events for tracking\n    event ProductRegistered(uint256 indexed productId, string name, address indexed owner);\n    event ProductTransferred(uint256 indexed productId, STAGE newStage, address indexed actor);\n    event IPFSHashUpdated(uint256 indexed productId, string ipfsHash);\n    event ProductSold(uint256 indexed productId, address indexed retailer);\n\n    // To add new food products to the stock\n    function addMedicine(string memory _name, string memory _description)\n        public\n        onlyByOwner()\n    {\n        require((rmsCtr > 0) && (manCtr > 0) && (disCtr > 0) && (retCtr > 0));\n        medicineCtr++;\n        MedicineStock[medicineCtr] = FoodProduct(\n            medicineCtr,\n            _name,\n            _description,\n            0,\n            0,\n            0,\n            0,\n            STAGE.Init,\n            \"\",\n            block.timestamp,\n            block.timestamp\n        );\n        emit ProductRegistered(medicineCtr, _name, msg.sender);\n    }\n\n    // Update IPFS hash for a product (for storing certificates, environmental data, etc.)\n    function updateIPFSHash(uint256 _medicineID, string memory _ipfsHash)\n        public\n        onlyByOwner()\n    {\n        require(_medicineID > 0 && _medicineID <= medicineCtr);\n        MedicineStock[_medicineID].ipfsHash = _ipfsHash;\n        MedicineStock[_medicineID].lastUpdatedAt = block.timestamp;\n        emit IPFSHashUpdated(_medicineID, _ipfsHash);\n    }\n}\n",
  "sourcePath": "/Users/hetavimehta/Desktop/ASU_Acad/Fall2025/CSE540/Project/supply-chain-provenance/contracts/SupplyChain.sol",
  "compiler": {
    "name": "solc",
    "version": "0.8.20+commit.a1b79de6.Emscripten.clang"
  },
  "schemaVersion": "3.4.16",
  "updatedAt": "2025-12-01T16:10:02.098Z",
  "networkType": "ethereum",
  "devdoc": {
    "kind": "dev",
    "methods": {},
    "version": 1
  },
  "userdoc": {
    "kind": "user",
    "methods": {},
    "version": 1
  }
}